package com.zxjk.duoduo.bean.response;

public class SignTransactionResponse {

    /**
     * id :
     * customerId : 6
     * duoduoId : 10000006
     * blockNumber :
     * createTime : -646942495
     * transactionHash : 0x85218b01b938dc0050b744aaf5af8c2bacb64ba31c8cbf8297fb0f9185760d2e
     * nonce : 10
     * blockHash :
     * fromAddress : 0x51F027C78d4bF6bf622E5A02EfBdB395850beD84
     * toAddress : 0x023328f0dFb1d1804C1FBFA89A26245828F00033
     * balance : 0.0000001
     * gas : 21004
     * gasPrice : 0.0000000000002
     * isError :
     * txreceiptStatus :
     * contractAddress :
     * gasUsed : 0.0000000042008
     * isDelete :
     * tokenName : ETH
     * tokenSymbol : ETH
     * tokenDecimal :
     * serialType : 0
     * rawTransaction : 0xf8670a83030d4082520c94023328f0dfb1d1804c1fbfa89a26245828f0003385174876e8000077a0c92b6ee5162dacd0f43cdeb38bf318b21f8bb968406c5539aa8a83ac31e5995ba02cd3a8ab41f4927d664fc1f12b33d9d6cfb369ef38c9d3494e224ebb409fb8af
     * inOrOut :
     * isTimeout :
     */

    private String id;
    private String customerId;
    private String duoduoId;
    private String blockNumber;
    private String createTime;
    private String transactionHash;
    private String nonce;
    private String blockHash;
    private String fromAddress;
    private String toAddress;
    private String balance;
    private String gas;
    private String gasPrice;
    private String isError;
    private String txreceiptStatus;
    private String contractAddress;
    private String gasUsed;
    private String isDelete;
    private String tokenName;
    private String tokenSymbol;
    private String tokenDecimal;
    private String serialType;
    private String rawTransaction;
    private String inOrOut;
    private String isTimeout;

    public String getId() {
        return id;
    }

    public void setId(String id) {
        this.id = id;
    }

    public String getCustomerId() {
        return customerId;
    }

    public void setCustomerId(String customerId) {
        this.customerId = customerId;
    }

    public String getDuoduoId() {
        return duoduoId;
    }

    public void setDuoduoId(String duoduoId) {
        this.duoduoId = duoduoId;
    }

    public String getBlockNumber() {
        return blockNumber;
    }

    public void setBlockNumber(String blockNumber) {
        this.blockNumber = blockNumber;
    }

    public String getCreateTime() {
        return createTime;
    }

    public void setCreateTime(String createTime) {
        this.createTime = createTime;
    }

    public String getTransactionHash() {
        return transactionHash;
    }

    public void setTransactionHash(String transactionHash) {
        this.transactionHash = transactionHash;
    }

    public String getNonce() {
        return nonce;
    }

    public void setNonce(String nonce) {
        this.nonce = nonce;
    }

    public String getBlockHash() {
        return blockHash;
    }

    public void setBlockHash(String blockHash) {
        this.blockHash = blockHash;
    }

    public String getFromAddress() {
        return fromAddress;
    }

    public void setFromAddress(String fromAddress) {
        this.fromAddress = fromAddress;
    }

    public String getToAddress() {
        return toAddress;
    }

    public void setToAddress(String toAddress) {
        this.toAddress = toAddress;
    }

    public String getBalance() {
        return balance;
    }

    public void setBalance(String balance) {
        this.balance = balance;
    }

    public String getGas() {
        return gas;
    }

    public void setGas(String gas) {
        this.gas = gas;
    }

    public String getGasPrice() {
        return gasPrice;
    }

    public void setGasPrice(String gasPrice) {
        this.gasPrice = gasPrice;
    }

    public String getIsError() {
        return isError;
    }

    public void setIsError(String isError) {
        this.isError = isError;
    }

    public String getTxreceiptStatus() {
        return txreceiptStatus;
    }

    public void setTxreceiptStatus(String txreceiptStatus) {
        this.txreceiptStatus = txreceiptStatus;
    }

    public String getContractAddress() {
        return contractAddress;
    }

    public void setContractAddress(String contractAddress) {
        this.contractAddress = contractAddress;
    }

    public String getGasUsed() {
        return gasUsed;
    }

    public void setGasUsed(String gasUsed) {
        this.gasUsed = gasUsed;
    }

    public String getIsDelete() {
        return isDelete;
    }

    public void setIsDelete(String isDelete) {
        this.isDelete = isDelete;
    }

    public String getTokenName() {
        return tokenName;
    }

    public void setTokenName(String tokenName) {
        this.tokenName = tokenName;
    }

    public String getTokenSymbol() {
        return tokenSymbol;
    }

    public void setTokenSymbol(String tokenSymbol) {
        this.tokenSymbol = tokenSymbol;
    }

    public String getTokenDecimal() {
        return tokenDecimal;
    }

    public void setTokenDecimal(String tokenDecimal) {
        this.tokenDecimal = tokenDecimal;
    }

    public String getSerialType() {
        return serialType;
    }

    public void setSerialType(String serialType) {
        this.serialType = serialType;
    }

    public String getRawTransaction() {
        return rawTransaction;
    }

    public void setRawTransaction(String rawTransaction) {
        this.rawTransaction = rawTransaction;
    }

    public String getInOrOut() {
        return inOrOut;
    }

    public void setInOrOut(String inOrOut) {
        this.inOrOut = inOrOut;
    }

    public String getIsTimeout() {
        return isTimeout;
    }

    public void setIsTimeout(String isTimeout) {
        this.isTimeout = isTimeout;
    }
}
