package com.zxjk.duoduo.bean.response;

public class SignHkbOrHkExchangeResponse {

    /**
     * id :
     * customerId : 44
     * duoduoId : 10420203
     * blockNumber :
     * createTime : -633989943
     * transactionHash : 0xf667d9e4d1a6293d2f76a5b39f85e127683e253d8998b838c85dad7b4fa8af6f
     * nonce : 5
     * blockHash :
     * fromAddress : 0x9E5FE477c68aC516D92C999cF5569e9473D1d96c
     * toAddress : 0x51F027C78d4bF6bf622E5A02EfBdB395850beD84
     * balance : 0.01
     * gas : 38015
     * gasPrice : 0.0000000123
     * isError :
     * txreceiptStatus :
     * contractAddress : 0xD9086f7d953f644B581429bb688E0f7fDFBD3e7f
     * gasUsed : 0.0004675845
     * isDelete :
     * tokenName : HKB
     * tokenSymbol : HKB
     * tokenDecimal : 2
     * serialType : 3
     * rawTransaction : 0xf8a9058502dd231b0082947f94d9086f7d953f644b581429bb688e0f7fdfbd3e7f80b844a9059cbb00000000000000000000000051f027c78d4bf6bf622e5a02efbdb395850bed84000000000000000000000000000000000000000000000000000000000000000177a0f2c5a7189a680ea54c740115593b347809134fae4b70564325713f8a6e4f435ea02c418654221141cb670728dd27d6518575101c16d395b053c553255e7e095417
     * inOrOut :
     * isTimeout :
     */

    private String id;
    private String customerId;
    private String duoduoId;
    private String blockNumber;
    private String createTime;
    private String transactionHash;
    private String nonce;
    private String blockHash;
    private String fromAddress;
    private String toAddress;
    private String balance;
    private String gas;
    private String gasPrice;
    private String isError;
    private String txreceiptStatus;
    private String contractAddress;
    private String gasUsed;
    private String isDelete;
    private String tokenName;
    private String tokenSymbol;
    private String tokenDecimal;
    private String serialType;
    private String rawTransaction;
    private String inOrOut;
    private String isTimeout;

    public String getId() {
        return id;
    }

    public void setId(String id) {
        this.id = id;
    }

    public String getCustomerId() {
        return customerId;
    }

    public void setCustomerId(String customerId) {
        this.customerId = customerId;
    }

    public String getDuoduoId() {
        return duoduoId;
    }

    public void setDuoduoId(String duoduoId) {
        this.duoduoId = duoduoId;
    }

    public String getBlockNumber() {
        return blockNumber;
    }

    public void setBlockNumber(String blockNumber) {
        this.blockNumber = blockNumber;
    }

    public String getCreateTime() {
        return createTime;
    }

    public void setCreateTime(String createTime) {
        this.createTime = createTime;
    }

    public String getTransactionHash() {
        return transactionHash;
    }

    public void setTransactionHash(String transactionHash) {
        this.transactionHash = transactionHash;
    }

    public String getNonce() {
        return nonce;
    }

    public void setNonce(String nonce) {
        this.nonce = nonce;
    }

    public String getBlockHash() {
        return blockHash;
    }

    public void setBlockHash(String blockHash) {
        this.blockHash = blockHash;
    }

    public String getFromAddress() {
        return fromAddress;
    }

    public void setFromAddress(String fromAddress) {
        this.fromAddress = fromAddress;
    }

    public String getToAddress() {
        return toAddress;
    }

    public void setToAddress(String toAddress) {
        this.toAddress = toAddress;
    }

    public String getBalance() {
        return balance;
    }

    public void setBalance(String balance) {
        this.balance = balance;
    }

    public String getGas() {
        return gas;
    }

    public void setGas(String gas) {
        this.gas = gas;
    }

    public String getGasPrice() {
        return gasPrice;
    }

    public void setGasPrice(String gasPrice) {
        this.gasPrice = gasPrice;
    }

    public String getIsError() {
        return isError;
    }

    public void setIsError(String isError) {
        this.isError = isError;
    }

    public String getTxreceiptStatus() {
        return txreceiptStatus;
    }

    public void setTxreceiptStatus(String txreceiptStatus) {
        this.txreceiptStatus = txreceiptStatus;
    }

    public String getContractAddress() {
        return contractAddress;
    }

    public void setContractAddress(String contractAddress) {
        this.contractAddress = contractAddress;
    }

    public String getGasUsed() {
        return gasUsed;
    }

    public void setGasUsed(String gasUsed) {
        this.gasUsed = gasUsed;
    }

    public String getIsDelete() {
        return isDelete;
    }

    public void setIsDelete(String isDelete) {
        this.isDelete = isDelete;
    }

    public String getTokenName() {
        return tokenName;
    }

    public void setTokenName(String tokenName) {
        this.tokenName = tokenName;
    }

    public String getTokenSymbol() {
        return tokenSymbol;
    }

    public void setTokenSymbol(String tokenSymbol) {
        this.tokenSymbol = tokenSymbol;
    }

    public String getTokenDecimal() {
        return tokenDecimal;
    }

    public void setTokenDecimal(String tokenDecimal) {
        this.tokenDecimal = tokenDecimal;
    }

    public String getSerialType() {
        return serialType;
    }

    public void setSerialType(String serialType) {
        this.serialType = serialType;
    }

    public String getRawTransaction() {
        return rawTransaction;
    }

    public void setRawTransaction(String rawTransaction) {
        this.rawTransaction = rawTransaction;
    }

    public String getInOrOut() {
        return inOrOut;
    }

    public void setInOrOut(String inOrOut) {
        this.inOrOut = inOrOut;
    }

    public String getIsTimeout() {
        return isTimeout;
    }

    public void setIsTimeout(String isTimeout) {
        this.isTimeout = isTimeout;
    }
}
